{
    "contractName": "Assessment",
    "abi": [
        {
            "inputs": [],
            "stateMutability": "payable",
            "type": "constructor"
        },
        {
            "inputs": [
                {
                    "internalType": "string",
                    "name": "id",
                    "type": "string"
                }
            ],
            "name": "deleteTransaction",
            "outputs": [],
            "stateMutability": "nonpayable",
            "type": "function"
        },
        {
            "inputs": [],
            "name": "getTransactionKeys",
            "outputs": [
                {
                    "internalType": "string[]",
                    "name": "",
                    "type": "string[]"
                }
            ],
            "stateMutability": "view",
            "type": "function"
        },
        {
            "inputs": [],
            "name": "getTransactionValues",
            "outputs": [
                {
                    "components": [
                        {
                            "internalType": "address",
                            "name": "senderAddress",
                            "type": "address"
                        },
                        {
                            "internalType": "address",
                            "name": "receiverAddress",
                            "type": "address"
                        },
                        {
                            "internalType": "int256",
                            "name": "amount",
                            "type": "int256"
                        }
                    ],
                    "internalType": "struct Assessment.transaction[]",
                    "name": "",
                    "type": "tuple[]"
                }
            ],
            "stateMutability": "view",
            "type": "function"
        },
        {
            "inputs": [
                {
                    "internalType": "uint256",
                    "name": "",
                    "type": "uint256"
                }
            ],
            "name": "keys",
            "outputs": [
                {
                    "internalType": "string",
                    "name": "",
                    "type": "string"
                }
            ],
            "stateMutability": "view",
            "type": "function"
        },
        {
            "inputs": [],
            "name": "owner",
            "outputs": [
                {
                    "internalType": "address payable",
                    "name": "",
                    "type": "address"
                }
            ],
            "stateMutability": "view",
            "type": "function"
        },
        {
            "inputs": [
                {
                    "internalType": "address",
                    "name": "receiverAddress",
                    "type": "address"
                },
                {
                    "internalType": "int256",
                    "name": "amount",
                    "type": "int256"
                },
                {
                    "internalType": "string",
                    "name": "id",
                    "type": "string"
                }
            ],
            "name": "sendETH",
            "outputs": [],
            "stateMutability": "nonpayable",
            "type": "function"
        },
        {
            "inputs": [
                {
                    "internalType": "string",
                    "name": "",
                    "type": "string"
                }
            ],
            "name": "transactionHistory",
            "outputs": [
                {
                    "internalType": "address",
                    "name": "senderAddress",
                    "type": "address"
                },
                {
                    "internalType": "address",
                    "name": "receiverAddress",
                    "type": "address"
                },
                {
                    "internalType": "int256",
                    "name": "amount",
                    "type": "int256"
                }
            ],
            "stateMutability": "view",
            "type": "function"
        },
        {
            "inputs": [
                {
                    "internalType": "uint256",
                    "name": "",
                    "type": "uint256"
                }
            ],
            "name": "values",
            "outputs": [
                {
                    "internalType": "address",
                    "name": "senderAddress",
                    "type": "address"
                },
                {
                    "internalType": "address",
                    "name": "receiverAddress",
                    "type": "address"
                },
                {
                    "internalType": "int256",
                    "name": "amount",
                    "type": "int256"
                }
            ],
            "stateMutability": "view",
            "type": "function"
        }
    ],
    "bytecode": "6080604052600080546001600160a01b03191633179055610ad5806100256000396000f3fe608060405234801561001057600080fd5b50600436106100885760003560e01c80638da5cb5b1161005b5780638da5cb5b14610117578063bdd19b0814610142578063c71c84d514610157578063fb380679146101a357600080fd5b80630cb6aaf11461008d5780634bc8c18c146100b65780635e383d21146100cb5780637c7f3c8514610104575b600080fd5b6100a061009b366004610695565b6101b8565b6040516100ad91906106fe565b60405180910390f35b6100c96100c43660046107bb565b610264565b005b6100de6100d9366004610695565b6103d7565b604080516001600160a01b039485168152939092166020840152908201526060016100ad565b6100c9610112366004610820565b610417565b60005461012a906001600160a01b031681565b6040516001600160a01b0390911681526020016100ad565b61014a6104f0565b6040516100ad919061085d565b6100de610165366004610820565b805180820160209081018051600180835293830192909401919091209290528154908201546002909201546001600160a01b03918216929091169083565b6101ab610577565b6040516100ad91906108c2565b600281815481106101c857600080fd5b9060005260206000200160009150905080546101e390610924565b80601f016020809104026020016040519081016040528092919081815260200182805461020f90610924565b801561025c5780601f106102315761010080835404028352916020019161025c565b820191906000526020600020905b81548152906001019060200180831161023f57829003601f168201915b505050505081565b604080516060810182523381526001600160a01b03851660208201528082018490529051819060019061029890859061095e565b9081526040805160209281900383019020835181546001600160a01b03199081166001600160a01b0392831617835593850151600180840180549096169190921617909355920151600292830155815490810182556000919091527f405787fa12a823e0f2b7631cc41b3ba8828b3321ca811111fa75cd3aa3bb5ace0161031f83826109c9565b50600380546001810182556000829052825191027fc2575a0e9e593c00f959f8c92f12db2869c3395a3b0502d05e2516446f71f85b810180546001600160a01b039384166001600160a01b03199182161790915560208401517fc2575a0e9e593c00f959f8c92f12db2869c3395a3b0502d05e2516446f71f85c83018054919094169116179091556040909101517fc2575a0e9e593c00f959f8c92f12db2869c3395a3b0502d05e2516446f71f85d90910155505050565b600381815481106103e757600080fd5b60009182526020909120600390910201805460018201546002909201546001600160a01b03918216935091169083565b6000546001600160a01b0316331461042e57600080fd5b600254156104ed57600181604051610446919061095e565b90815260405190819003602001902080546001600160a01b031990811682556001820180549091169055600060029182015580548061048757610487610a89565b6001900381819060005260206000200160006104a39190610647565b905560038054806104b6576104b6610a89565b60008281526020812060036000199093019283020180546001600160a01b0319908116825560018201805490911690556002015590555b50565b60606003805480602002602001604051908101604052809291908181526020016000905b8282101561056e576000848152602090819020604080516060810182526003860290920180546001600160a01b03908116845260018083015490911684860152600290910154918301919091529083529092019101610514565b50505050905090565b60606002805480602002602001604051908101604052809291908181526020016000905b8282101561056e5783829060005260206000200180546105ba90610924565b80601f01602080910402602001604051908101604052809291908181526020018280546105e690610924565b80156106335780601f1061060857610100808354040283529160200191610633565b820191906000526020600020905b81548152906001019060200180831161061657829003601f168201915b50505050508152602001906001019061059b565b50805461065390610924565b6000825580601f10610663575050565b601f0160209004906000526020600020908101906104ed91905b80821115610691576000815560010161067d565b5090565b6000602082840312156106a757600080fd5b5035919050565b60005b838110156106c95781810151838201526020016106b1565b50506000910152565b600081518084526106ea8160208601602086016106ae565b601f01601f19169290920160200192915050565b60208152600061071160208301846106d2565b9392505050565b634e487b7160e01b600052604160045260246000fd5b600082601f83011261073f57600080fd5b813567ffffffffffffffff8082111561075a5761075a610718565b604051601f8301601f19908116603f0116810190828211818310171561078257610782610718565b8160405283815286602085880101111561079b57600080fd5b836020870160208301376000602085830101528094505050505092915050565b6000806000606084860312156107d057600080fd5b83356001600160a01b03811681146107e757600080fd5b925060208401359150604084013567ffffffffffffffff81111561080a57600080fd5b6108168682870161072e565b9150509250925092565b60006020828403121561083257600080fd5b813567ffffffffffffffff81111561084957600080fd5b6108558482850161072e565b949350505050565b602080825282518282018190526000919060409081850190868401855b828110156108b557815180516001600160a01b039081168652878201511687860152850151858501526060909301929085019060010161087a565b5091979650505050505050565b6000602080830181845280855180835260408601915060408160051b870101925083870160005b8281101561091757603f198886030184526109058583516106d2565b945092850192908501906001016108e9565b5092979650505050505050565b600181811c9082168061093857607f821691505b60208210810361095857634e487b7160e01b600052602260045260246000fd5b50919050565b600082516109708184602087016106ae565b9190910192915050565b601f8211156109c457600081815260208120601f850160051c810160208610156109a15750805b601f850160051c820191505b818110156109c0578281556001016109ad565b5050505b505050565b815167ffffffffffffffff8111156109e3576109e3610718565b6109f7816109f18454610924565b8461097a565b602080601f831160018114610a2c5760008415610a145750858301515b600019600386901b1c1916600185901b1785556109c0565b600085815260208120601f198616915b82811015610a5b57888601518255948401946001909101908401610a3c565b5085821015610a795787850151600019600388901b60f8161c191681555b5050505050600190811b01905550565b634e487b7160e01b600052603160045260246000fdfea2646970667358221220c9e886691135c5c16256216f3d83b53c8a497ea1beea528f5dd69f24165827b864736f6c63430008130033",
    "sourcePath": "d:/Documents/Code/Solidity/SCM-Starter-main/contracts/Assessment.sol",
    "compiler": {
        "name": "solc",
        "version": "0.8.19+commit.7dd6d404"
    },
    "functionHashes": {
        "deleteTransaction(string)": "7c7f3c85",
        "getTransactionKeys()": "fb380679",
        "getTransactionValues()": "bdd19b08",
        "keys(uint256)": "0cb6aaf1",
        "owner()": "8da5cb5b",
        "sendETH(address,int256,string)": "4bc8c18c",
        "transactionHistory(string)": "c71c84d5",
        "values(uint256)": "5e383d21"
    },
    "gasEstimates": {
        "creation": {
            "codeDepositCost": "554600",
            "executionCost": "24798",
            "totalCost": "579398"
        },
        "external": {
            "deleteTransaction(string)": "infinite",
            "getTransactionKeys()": "infinite",
            "getTransactionValues()": "infinite",
            "keys(uint256)": "infinite",
            "owner()": "2337",
            "sendETH(address,int256,string)": "infinite",
            "transactionHistory(string)": "infinite",
            "values(uint256)": "8957"
        }
    }
}