{
    "contractName": "Assessment",
    "abi": [
        {
            "inputs": [
                {
                    "internalType": "uint256",
                    "name": "initBalance",
                    "type": "uint256"
                }
            ],
            "stateMutability": "payable",
            "type": "constructor"
        },
        {
            "inputs": [
                {
                    "internalType": "uint256",
                    "name": "balance",
                    "type": "uint256"
                },
                {
                    "internalType": "uint256",
                    "name": "withdrawAmount",
                    "type": "uint256"
                }
            ],
            "name": "InsufficientBalance",
            "type": "error"
        },
        {
            "anonymous": false,
            "inputs": [
                {
                    "indexed": false,
                    "internalType": "uint256",
                    "name": "amount",
                    "type": "uint256"
                }
            ],
            "name": "Deposit",
            "type": "event"
        },
        {
            "anonymous": false,
            "inputs": [
                {
                    "indexed": false,
                    "internalType": "uint256",
                    "name": "amount",
                    "type": "uint256"
                }
            ],
            "name": "Withdraw",
            "type": "event"
        },
        {
            "inputs": [],
            "name": "balance",
            "outputs": [
                {
                    "internalType": "uint256",
                    "name": "",
                    "type": "uint256"
                }
            ],
            "stateMutability": "view",
            "type": "function"
        },
        {
            "inputs": [
                {
                    "internalType": "uint256",
                    "name": "_index",
                    "type": "uint256"
                }
            ],
            "name": "deleteTransaction",
            "outputs": [],
            "stateMutability": "nonpayable",
            "type": "function"
        },
        {
            "inputs": [
                {
                    "internalType": "uint256",
                    "name": "_amount",
                    "type": "uint256"
                },
                {
                    "internalType": "string",
                    "name": "transactionID",
                    "type": "string"
                }
            ],
            "name": "deposit",
            "outputs": [],
            "stateMutability": "payable",
            "type": "function"
        },
        {
            "inputs": [],
            "name": "getBalance",
            "outputs": [
                {
                    "internalType": "uint256",
                    "name": "",
                    "type": "uint256"
                }
            ],
            "stateMutability": "view",
            "type": "function"
        },
        {
            "inputs": [],
            "name": "getTransactionHistory",
            "outputs": [
                {
                    "components": [
                        {
                            "internalType": "string",
                            "name": "_id",
                            "type": "string"
                        },
                        {
                            "internalType": "address",
                            "name": "_address",
                            "type": "address"
                        },
                        {
                            "internalType": "string",
                            "name": "operation",
                            "type": "string"
                        },
                        {
                            "internalType": "int256",
                            "name": "amount",
                            "type": "int256"
                        }
                    ],
                    "internalType": "struct Assessment.transaction[]",
                    "name": "",
                    "type": "tuple[]"
                }
            ],
            "stateMutability": "view",
            "type": "function"
        },
        {
            "inputs": [],
            "name": "owner",
            "outputs": [
                {
                    "internalType": "address payable",
                    "name": "",
                    "type": "address"
                }
            ],
            "stateMutability": "view",
            "type": "function"
        },
        {
            "inputs": [
                {
                    "internalType": "uint256",
                    "name": "",
                    "type": "uint256"
                }
            ],
            "name": "transactionHistory",
            "outputs": [
                {
                    "internalType": "string",
                    "name": "_id",
                    "type": "string"
                },
                {
                    "internalType": "address",
                    "name": "_address",
                    "type": "address"
                },
                {
                    "internalType": "string",
                    "name": "operation",
                    "type": "string"
                },
                {
                    "internalType": "int256",
                    "name": "amount",
                    "type": "int256"
                }
            ],
            "stateMutability": "view",
            "type": "function"
        },
        {
            "inputs": [
                {
                    "internalType": "uint256",
                    "name": "",
                    "type": "uint256"
                }
            ],
            "name": "transactionNewHistory",
            "outputs": [
                {
                    "internalType": "string",
                    "name": "_id",
                    "type": "string"
                },
                {
                    "internalType": "address",
                    "name": "_address",
                    "type": "address"
                },
                {
                    "internalType": "string",
                    "name": "operation",
                    "type": "string"
                },
                {
                    "internalType": "int256",
                    "name": "amount",
                    "type": "int256"
                }
            ],
            "stateMutability": "view",
            "type": "function"
        },
        {
            "inputs": [
                {
                    "internalType": "uint256",
                    "name": "_withdrawAmount",
                    "type": "uint256"
                },
                {
                    "internalType": "string",
                    "name": "transactionID",
                    "type": "string"
                }
            ],
            "name": "withdraw",
            "outputs": [],
            "stateMutability": "nonpayable",
            "type": "function"
        }
    ],
    "bytecode": "6080604052604051610f5b380380610f5b8339810160408190526100229161003c565b600080546001600160a01b03191633179055600155610055565b60006020828403121561004e57600080fd5b5051919050565b610ef7806100646000396000f3fe6080604052600436106100855760003560e01c80638da5cb5b116100595780638da5cb5b14610120578063b69ef8a814610158578063b76d4fc31461016e578063dc048cf214610190578063f1215d25146101b057600080fd5b8062e9c0061461008a57806312065fe0146100ac578063243e7a87146100d05780633b6ebf9714610100575b600080fd5b34801561009657600080fd5b506100aa6100a53660046109b4565b6101c3565b005b3480156100b857600080fd5b506001545b6040519081526020015b60405180910390f35b3480156100dc57600080fd5b506100f06100eb3660046109b4565b610290565b6040516100c79493929190610a13565b34801561010c57600080fd5b506100f061011b3660046109b4565b6103ef565b34801561012c57600080fd5b50600054610140906001600160a01b031681565b6040516001600160a01b0390911681526020016100c7565b34801561016457600080fd5b506100bd60015481565b34801561017a57600080fd5b506101836103ff565b6040516100c79190610a59565b34801561019c57600080fd5b506100aa6101ab366004610b16565b6105a3565b6100aa6101be366004610b16565b610743565b6101cf6003600061085d565b60005b60025481101561027b57818114610269576003600282815481106101f8576101f8610bd1565b60009182526020808320845460018101865594845292206004918202909201920201806102258382610c70565b5060018281015490820180546001600160a01b0319166001600160a01b0390921691909117905560028082019061025e90840182610c70565b506003918201549101555b8061027381610d67565b9150506101d2565b506003805461028c91600291610881565b5050565b600281815481106102a057600080fd5b90600052602060002090600402016000915090508060000180546102c390610be7565b80601f01602080910402602001604051908101604052809291908181526020018280546102ef90610be7565b801561033c5780601f106103115761010080835404028352916020019161033c565b820191906000526020600020905b81548152906001019060200180831161031f57829003601f168201915b505050600184015460028501805494956001600160a01b0390921694919350915061036690610be7565b80601f016020809104026020016040519081016040528092919081815260200182805461039290610be7565b80156103df5780601f106103b4576101008083540402835291602001916103df565b820191906000526020600020905b8154815290600101906020018083116103c257829003601f168201915b5050505050908060030154905084565b600381815481106102a057600080fd5b60606002805480602002602001604051908101604052809291908181526020016000905b8282101561059a578382906000526020600020906004020160405180608001604052908160008201805461045690610be7565b80601f016020809104026020016040519081016040528092919081815260200182805461048290610be7565b80156104cf5780601f106104a4576101008083540402835291602001916104cf565b820191906000526020600020905b8154815290600101906020018083116104b257829003601f168201915b505050918352505060018201546001600160a01b031660208201526002820180546040909201916104ff90610be7565b80601f016020809104026020016040519081016040528092919081815260200182805461052b90610be7565b80156105785780601f1061054d57610100808354040283529160200191610578565b820191906000526020600020905b81548152906001019060200180831161055b57829003601f168201915b5050505050815260200160038201548152505081526020019060010190610423565b50505050905090565b6000546001600160a01b031633146105d65760405162461bcd60e51b81526004016105cd90610d80565b60405180910390fd5b600154828110156106085760015460405163cf47918160e01b81526004810191909152602481018490526044016105cd565b826001600082825461061a9190610dc5565b9091555061062a90508382610dc5565b6001541461063a5761063a610dde565b6040518381527f5b6b431d4476a211bb7d41c20d1aab9ae2321deee0d20be3d9fc9b1093fa6e3d9060200160405180910390a16040805160808101825283815233602080830191909152825180840184526008815267776974686472617760c01b91810191909152918101919091526060810184905260028054600181018255600091909152815160049091027f405787fa12a823e0f2b7631cc41b3ba8828b3321ca811111fa75cd3aa3bb5ace019081906106f69082610df4565b5060208201516001820180546001600160a01b0319166001600160a01b03909216919091179055604082015160028201906107319082610df4565b50606082015181600301555050505050565b6001546000546001600160a01b031633146107705760405162461bcd60e51b81526004016105cd90610d80565b82600160008282546107829190610eae565b9091555061079290508382610eae565b600154146107a2576107a2610dde565b6040518381527f4d6ce1e535dbade1c23defba91e23b8f791ce5edc0cc320257a2b364e4e384269060200160405180910390a1604080516080810182528381523360208083019190915282518084018452600781526619195c1bdcda5d60ca1b91810191909152918101919091526060810184905260028054600181018255600091909152815160049091027f405787fa12a823e0f2b7631cc41b3ba8828b3321ca811111fa75cd3aa3bb5ace019081906106f69082610df4565b508054600082556004029060005260206000209081019061087e9190610926565b50565b8280548282559060005260206000209060040281019282156109165760005260206000209160040282015b82811115610916578282806108c18382610c70565b5060018281015490820180546001600160a01b0319166001600160a01b039092169190911790556002808201906108fa90840182610c70565b50600382015481600301555050916004019190600401906108ac565b50610922929150610926565b5090565b8082111561092257600061093a828261096a565b6001820180546001600160a01b031916905561095a60028301600061096a565b5060006003820155600401610926565b50805461097690610be7565b6000825580601f10610986575050565b601f01602090049060005260206000209081019061087e91905b8082111561092257600081556001016109a0565b6000602082840312156109c657600080fd5b5035919050565b6000815180845260005b818110156109f3576020818501810151868301820152016109d7565b506000602082860101526020601f19601f83011685010191505092915050565b608081526000610a2660808301876109cd565b6001600160a01b03861660208401528281036040840152610a4781866109cd565b91505082606083015295945050505050565b60006020808301818452808551808352604092508286019150828160051b87010184880160005b83811015610af257603f19898403018552815160808151818652610aa6828701826109cd565b838b01516001600160a01b0316878c0152898401518782038b8901529092509050610ad182826109cd565b60609384015196909301959095525094870194925090860190600101610a80565b509098975050505050505050565b634e487b7160e01b600052604160045260246000fd5b60008060408385031215610b2957600080fd5b82359150602083013567ffffffffffffffff80821115610b4857600080fd5b818501915085601f830112610b5c57600080fd5b813581811115610b6e57610b6e610b00565b604051601f8201601f19908116603f01168101908382118183101715610b9657610b96610b00565b81604052828152886020848701011115610baf57600080fd5b8260208601602083013760006020848301015280955050505050509250929050565b634e487b7160e01b600052603260045260246000fd5b600181811c90821680610bfb57607f821691505b602082108103610c1b57634e487b7160e01b600052602260045260246000fd5b50919050565b601f821115610c6b57600081815260208120601f850160051c81016020861015610c485750805b601f850160051c820191505b81811015610c6757828155600101610c54565b5050505b505050565b818103610c7b575050565b610c858254610be7565b67ffffffffffffffff811115610c9d57610c9d610b00565b610cb181610cab8454610be7565b84610c21565b6000601f821160018114610ce55760008315610ccd5750848201545b600019600385901b1c1916600184901b178455610d4a565b600085815260209020601f19841690600086815260209020845b83811015610d1f5782860154825560019586019590910190602001610cff565b5085831015610d3d5781850154600019600388901b60f8161c191681555b50505060018360011b0184555b5050505050565b634e487b7160e01b600052601160045260246000fd5b600060018201610d7957610d79610d51565b5060010190565b60208082526025908201527f596f7520617265206e6f7420746865206f776e6572206f66207468697320616360408201526418dbdd5b9d60da1b606082015260800190565b81810381811115610dd857610dd8610d51565b92915050565b634e487b7160e01b600052600160045260246000fd5b815167ffffffffffffffff811115610e0e57610e0e610b00565b610e1c81610cab8454610be7565b602080601f831160018114610e515760008415610e395750858301515b600019600386901b1c1916600185901b178555610c67565b600085815260208120601f198616915b82811015610e8057888601518255948401946001909101908401610e61565b5085821015610e9e5787850151600019600388901b60f8161c191681555b5050505050600190811b01905550565b80820180821115610dd857610dd8610d5156fea26469706673582212203e975b20bb60ced9dd44c38e088c2403d901ff952070d367ac5802fd9b8771d764736f6c63430008130033",
    "sourcePath": "d:/Documents/Code/Solidity/SCM-Starter-main/contracts/Assessment.sol",
    "compiler": {
        "name": "solc",
        "version": "0.8.19+commit.7dd6d404"
    },
    "functionHashes": {
        "balance()": "b69ef8a8",
        "deleteTransaction(uint256)": "00e9c006",
        "deposit(uint256,string)": "f1215d25",
        "getBalance()": "12065fe0",
        "getTransactionHistory()": "b76d4fc3",
        "owner()": "8da5cb5b",
        "transactionHistory(uint256)": "243e7a87",
        "transactionNewHistory(uint256)": "3b6ebf97",
        "withdraw(uint256,string)": "dc048cf2"
    },
    "gasEstimates": {
        "creation": {
            "codeDepositCost": "766200",
            "executionCost": "infinite",
            "totalCost": "infinite"
        },
        "external": {
            "balance()": "2306",
            "deleteTransaction(uint256)": "infinite",
            "deposit(uint256,string)": "infinite",
            "getBalance()": "2293",
            "getTransactionHistory()": "infinite",
            "owner()": "2337",
            "transactionHistory(uint256)": "infinite",
            "transactionNewHistory(uint256)": "infinite",
            "withdraw(uint256,string)": "infinite"
        }
    }
}